{
  "_format": "hh-sol-artifact-1",
  "contractName": "SheetOwnership",
  "sourceName": "contracts/SheetOwnership.sol",
  "abi": [
    {
      "constant": true,
      "inputs": [
        {
          "name": "attribute_score",
          "type": "uint16"
        }
      ],
      "name": "attributeBonuses",
      "outputs": [
        {
          "name": "",
          "type": "int256"
        }
      ],
      "payable": false,
      "stateMutability": "view",
      "type": "function"
    },
    {
      "constant": false,
      "inputs": [
        {
          "name": "_approved",
          "type": "address"
        },
        {
          "name": "_tokenId",
          "type": "uint256"
        }
      ],
      "name": "approve",
      "outputs": [],
      "payable": true,
      "stateMutability": "payable",
      "type": "function"
    },
    {
      "constant": false,
      "inputs": [
        {
          "name": "_sheetId",
          "type": "uint256"
        }
      ],
      "name": "levelUp",
      "outputs": [],
      "payable": false,
      "stateMutability": "nonpayable",
      "type": "function"
    },
    {
      "constant": false,
      "inputs": [
        {
          "name": "_sheetId",
          "type": "uint256"
        },
        {
          "name": "_newStr",
          "type": "uint16"
        }
      ],
      "name": "changeStr",
      "outputs": [],
      "payable": false,
      "stateMutability": "nonpayable",
      "type": "function"
    },
    {
      "constant": false,
      "inputs": [
        {
          "name": "_from",
          "type": "address"
        },
        {
          "name": "_to",
          "type": "address"
        },
        {
          "name": "_tokenId",
          "type": "uint256"
        }
      ],
      "name": "transferFrom",
      "outputs": [],
      "payable": true,
      "stateMutability": "payable",
      "type": "function"
    },
    {
      "constant": false,
      "inputs": [
        {
          "name": "_sheetId",
          "type": "uint256"
        },
        {
          "name": "_newDex",
          "type": "uint16"
        }
      ],
      "name": "changeDex",
      "outputs": [],
      "payable": false,
      "stateMutability": "nonpayable",
      "type": "function"
    },
    {
      "constant": true,
      "inputs": [
        {
          "name": "_owner",
          "type": "address"
        }
      ],
      "name": "getSheetsByOwner",
      "outputs": [
        {
          "name": "",
          "type": "uint256[]"
        }
      ],
      "payable": false,
      "stateMutability": "view",
      "type": "function"
    },
    {
      "constant": true,
      "inputs": [
        {
          "name": "",
          "type": "uint256"
        }
      ],
      "name": "sheetToOwner",
      "outputs": [
        {
          "name": "",
          "type": "address"
        }
      ],
      "payable": false,
      "stateMutability": "view",
      "type": "function"
    },
    {
      "constant": false,
      "inputs": [
        {
          "name": "_charName",
          "type": "string"
        },
        {
          "name": "_race",
          "type": "string"
        },
        {
          "name": "_class",
          "type": "string"
        },
        {
          "name": "_Str",
          "type": "uint16"
        },
        {
          "name": "_Dex",
          "type": "uint16"
        },
        {
          "name": "_Con",
          "type": "uint16"
        },
        {
          "name": "_Int",
          "type": "uint16"
        },
        {
          "name": "_Wis",
          "type": "uint16"
        },
        {
          "name": "_Cha",
          "type": "uint16"
        }
      ],
      "name": "createSheet",
      "outputs": [],
      "payable": false,
      "stateMutability": "nonpayable",
      "type": "function"
    },
    {
      "constant": true,
      "inputs": [
        {
          "name": "_tokenId",
          "type": "uint256"
        }
      ],
      "name": "ownerOf",
      "outputs": [
        {
          "name": "",
          "type": "address"
        }
      ],
      "payable": false,
      "stateMutability": "view",
      "type": "function"
    },
    {
      "constant": false,
      "inputs": [
        {
          "name": "_charName",
          "type": "string"
        },
        {
          "name": "_race",
          "type": "string"
        },
        {
          "name": "_class",
          "type": "string"
        }
      ],
      "name": "createRandomSheet",
      "outputs": [],
      "payable": false,
      "stateMutability": "nonpayable",
      "type": "function"
    },
    {
      "constant": false,
      "inputs": [
        {
          "name": "_seconds",
          "type": "uint256"
        }
      ],
      "name": "setCooldownTime",
      "outputs": [],
      "payable": false,
      "stateMutability": "nonpayable",
      "type": "function"
    },
    {
      "constant": true,
      "inputs": [
        {
          "name": "_owner",
          "type": "address"
        }
      ],
      "name": "balanceOf",
      "outputs": [
        {
          "name": "",
          "type": "uint256"
        }
      ],
      "payable": false,
      "stateMutability": "view",
      "type": "function"
    },
    {
      "constant": false,
      "inputs": [],
      "name": "renounceOwnership",
      "outputs": [],
      "payable": false,
      "stateMutability": "nonpayable",
      "type": "function"
    },
    {
      "constant": true,
      "inputs": [],
      "name": "owner",
      "outputs": [
        {
          "name": "",
          "type": "address"
        }
      ],
      "payable": false,
      "stateMutability": "view",
      "type": "function"
    },
    {
      "constant": true,
      "inputs": [],
      "name": "isOwner",
      "outputs": [
        {
          "name": "",
          "type": "bool"
        }
      ],
      "payable": false,
      "stateMutability": "view",
      "type": "function"
    },
    {
      "constant": false,
      "inputs": [
        {
          "name": "_sheetId",
          "type": "uint256"
        },
        {
          "name": "_newInt",
          "type": "uint16"
        }
      ],
      "name": "changeInt",
      "outputs": [],
      "payable": false,
      "stateMutability": "nonpayable",
      "type": "function"
    },
    {
      "constant": true,
      "inputs": [
        {
          "name": "",
          "type": "uint256"
        }
      ],
      "name": "sheets",
      "outputs": [
        {
          "name": "charName",
          "type": "string"
        },
        {
          "name": "race",
          "type": "string"
        },
        {
          "name": "class",
          "type": "string"
        },
        {
          "name": "level",
          "type": "uint16"
        },
        {
          "name": "Str",
          "type": "uint16"
        },
        {
          "name": "Dex",
          "type": "uint16"
        },
        {
          "name": "Con",
          "type": "uint16"
        },
        {
          "name": "Int",
          "type": "uint16"
        },
        {
          "name": "Wis",
          "type": "uint16"
        },
        {
          "name": "Cha",
          "type": "uint16"
        },
        {
          "name": "readyTime",
          "type": "uint32"
        }
      ],
      "payable": false,
      "stateMutability": "view",
      "type": "function"
    },
    {
      "constant": false,
      "inputs": [
        {
          "name": "_sheetId",
          "type": "uint256"
        },
        {
          "name": "_newCha",
          "type": "uint16"
        }
      ],
      "name": "changeCha",
      "outputs": [],
      "payable": false,
      "stateMutability": "nonpayable",
      "type": "function"
    },
    {
      "constant": false,
      "inputs": [
        {
          "name": "_sheetId",
          "type": "uint256"
        },
        {
          "name": "_newWis",
          "type": "uint16"
        }
      ],
      "name": "changeWis",
      "outputs": [],
      "payable": false,
      "stateMutability": "nonpayable",
      "type": "function"
    },
    {
      "constant": false,
      "inputs": [
        {
          "name": "_sheetId",
          "type": "uint256"
        },
        {
          "name": "_newCon",
          "type": "uint16"
        }
      ],
      "name": "changeCon",
      "outputs": [],
      "payable": false,
      "stateMutability": "nonpayable",
      "type": "function"
    },
    {
      "constant": false,
      "inputs": [
        {
          "name": "newOwner",
          "type": "address"
        }
      ],
      "name": "transferOwnership",
      "outputs": [],
      "payable": false,
      "stateMutability": "nonpayable",
      "type": "function"
    },
    {
      "anonymous": false,
      "inputs": [
        {
          "indexed": true,
          "name": "_from",
          "type": "address"
        },
        {
          "indexed": true,
          "name": "_to",
          "type": "address"
        },
        {
          "indexed": true,
          "name": "_tokenId",
          "type": "uint256"
        }
      ],
      "name": "Transfer",
      "type": "event"
    },
    {
      "anonymous": false,
      "inputs": [
        {
          "indexed": true,
          "name": "_owner",
          "type": "address"
        },
        {
          "indexed": true,
          "name": "_approved",
          "type": "address"
        },
        {
          "indexed": true,
          "name": "_tokenId",
          "type": "uint256"
        }
      ],
      "name": "Approval",
      "type": "event"
    },
    {
      "anonymous": false,
      "inputs": [
        {
          "indexed": false,
          "name": "sheetId",
          "type": "uint256"
        },
        {
          "indexed": false,
          "name": "charName",
          "type": "string"
        },
        {
          "indexed": false,
          "name": "race",
          "type": "string"
        },
        {
          "indexed": false,
          "name": "class",
          "type": "string"
        }
      ],
      "name": "NewSheet",
      "type": "event"
    },
    {
      "anonymous": false,
      "inputs": [
        {
          "indexed": true,
          "name": "previousOwner",
          "type": "address"
        },
        {
          "indexed": true,
          "name": "newOwner",
          "type": "address"
        }
      ],
      "name": "OwnershipTransferred",
      "type": "event"
    }
  ],
  "bytecode": "0x608060405260006001556001600260006101000a81548161ffff021916908361ffff1602179055506078600355336000806101000a81548173ffffffffffffffffffffffffffffffffffffffff021916908373ffffffffffffffffffffffffffffffffffffffff1602179055506000809054906101000a900473ffffffffffffffffffffffffffffffffffffffff1673ffffffffffffffffffffffffffffffffffffffff16600073ffffffffffffffffffffffffffffffffffffffff167f8be0079c531659141344cd1fd0a4f28419497f9722a3daafe3b4186f6b6457e060405160405180910390a36126ce806100f76000396000f3fe608060405260043610610122576000357c010000000000000000000000000000000000000000000000000000000090048063025a542d14610127578063095ea7b31461017a5780630ce90ec2146101c85780631b8b71cf1461020357806323b872dd1461024c57806330ed57db146102ba578063459c71ce1461030357806350402ba9146103a9578063624e5e16146104245780636352211e1461066f57806363b8cc4e146106ea5780636ff73201146108e057806370a082311461091b578063715018a6146109805780638da5cb5b146109975780638f32d59b146109ee57806395ea4b2714610a1d578063ae28505e14610a66578063b27c875114610c6e578063bb8f7e7f14610cb7578063cca09efd14610d00578063f2fde38b14610d49575b600080fd5b34801561013357600080fd5b506101646004803603602081101561014a57600080fd5b81019080803561ffff169060200190929190505050610d9a565b6040518082815260200191505060405180910390f35b6101c66004803603604081101561019057600080fd5b81019080803573ffffffffffffffffffffffffffffffffffffffff16906020019092919080359060200190929190505050610f55565b005b3480156101d457600080fd5b50610201600480360360208110156101eb57600080fd5b8101908080359060200190929190505050611075565b005b34801561020f57600080fd5b5061024a6004803603604081101561022657600080fd5b8101908080359060200190929190803561ffff1690602001909291905050506111a6565b005b6102b86004803603606081101561026257600080fd5b81019080803573ffffffffffffffffffffffffffffffffffffffff169060200190929190803573ffffffffffffffffffffffffffffffffffffffff16906020019092919080359060200190929190505050611254565b005b3480156102c657600080fd5b50610301600480360360408110156102dd57600080fd5b8101908080359060200190929190803561ffff16906020019092919050505061133a565b005b34801561030f57600080fd5b506103526004803603602081101561032657600080fd5b81019080803573ffffffffffffffffffffffffffffffffffffffff1690602001909291905050506113e8565b6040518080602001828103825283818151815260200191508051906020019060200280838360005b8381101561039557808201518184015260208101905061037a565b505050509050019250505060405180910390f35b3480156103b557600080fd5b506103e2600480360360208110156103cc57600080fd5b8101908080359060200190929190505050611519565b604051808273ffffffffffffffffffffffffffffffffffffffff1673ffffffffffffffffffffffffffffffffffffffff16815260200191505060405180910390f35b34801561043057600080fd5b5061066d600480360361012081101561044857600080fd5b810190808035906020019064010000000081111561046557600080fd5b82018360208201111561047757600080fd5b8035906020019184600183028401116401000000008311171561049957600080fd5b91908080601f016020809104026020016040519081016040528093929190818152602001838380828437600081840152601f19601f820116905080830192505050505050509192919290803590602001906401000000008111156104fc57600080fd5b82018360208201111561050e57600080fd5b8035906020019184600183028401116401000000008311171561053057600080fd5b91908080601f016020809104026020016040519081016040528093929190818152602001838380828437600081840152601f19601f8201169050808301925050505050505091929192908035906020019064010000000081111561059357600080fd5b8201836020820111156105a557600080fd5b803590602001918460018302840111640100000000831117156105c757600080fd5b91908080601f016020809104026020016040519081016040528093929190818152602001838380828437600081840152601f19601f820116905080830192505050505050509192919290803561ffff169060200190929190803561ffff169060200190929190803561ffff169060200190929190803561ffff169060200190929190803561ffff169060200190929190803561ffff16906020019092919050505061154c565b005b34801561067b57600080fd5b506106a86004803603602081101561069257600080fd5b81019080803590602001909291905050506119ed565b604051808273ffffffffffffffffffffffffffffffffffffffff1673ffffffffffffffffffffffffffffffffffffffff16815260200191505060405180910390f35b3480156106f657600080fd5b506108de6004803603606081101561070d57600080fd5b810190808035906020019064010000000081111561072a57600080fd5b82018360208201111561073c57600080fd5b8035906020019184600183028401116401000000008311171561075e57600080fd5b91908080601f016020809104026020016040519081016040528093929190818152602001838380828437600081840152601f19601f820116905080830192505050505050509192919290803590602001906401000000008111156107c157600080fd5b8201836020820111156107d357600080fd5b803590602001918460018302840111640100000000831117156107f557600080fd5b91908080601f016020809104026020016040519081016040528093929190818152602001838380828437600081840152601f19601f8201169050808301925050505050505091929192908035906020019064010000000081111561085857600080fd5b82018360208201111561086a57600080fd5b8035906020019184600183028401116401000000008311171561088c57600080fd5b91908080601f016020809104026020016040519081016040528093929190818152602001838380828437600081840152601f19601f820116905080830192505050505050509192919290505050611a2a565b005b3480156108ec57600080fd5b506109196004803603602081101561090357600080fd5b8101908080359060200190929190505050611a76565b005b34801561092757600080fd5b5061096a6004803603602081101561093e57600080fd5b81019080803573ffffffffffffffffffffffffffffffffffffffff169060200190929190505050611a93565b6040518082815260200191505060405180910390f35b34801561098c57600080fd5b50610995611adc565b005b3480156109a357600080fd5b506109ac611bae565b604051808273ffffffffffffffffffffffffffffffffffffffff1673ffffffffffffffffffffffffffffffffffffffff16815260200191505060405180910390f35b3480156109fa57600080fd5b50610a03611bd7565b604051808215151515815260200191505060405180910390f35b348015610a2957600080fd5b50610a6460048036036040811015610a4057600080fd5b8101908080359060200190929190803561ffff169060200190929190505050611c2e565b005b348015610a7257600080fd5b50610a9f60048036036020811015610a8957600080fd5b8101908080359060200190929190505050611cdc565b604051808060200180602001806020018c61ffff1661ffff1681526020018b61ffff1661ffff1681526020018a61ffff1661ffff1681526020018961ffff1661ffff1681526020018861ffff1661ffff1681526020018761ffff1661ffff1681526020018661ffff1661ffff1681526020018563ffffffff1663ffffffff16815260200184810384528f818151815260200191508051906020019080838360005b83811015610b5b578082015181840152602081019050610b40565b50505050905090810190601f168015610b885780820380516001836020036101000a031916815260200191505b5084810383528e818151815260200191508051906020019080838360005b83811015610bc1578082015181840152602081019050610ba6565b50505050905090810190601f168015610bee5780820380516001836020036101000a031916815260200191505b5084810382528d818151815260200191508051906020019080838360005b83811015610c27578082015181840152602081019050610c0c565b50505050905090810190601f168015610c545780820380516001836020036101000a031916815260200191505b509e50505050505050505050505050505060405180910390f35b348015610c7a57600080fd5b50610cb560048036036040811015610c9157600080fd5b8101908080359060200190929190803561ffff169060200190929190505050611f7f565b005b348015610cc357600080fd5b50610cfe60048036036040811015610cda57600080fd5b8101908080359060200190929190803561ffff16906020019092919050505061202d565b005b348015610d0c57600080fd5b50610d4760048036036040811015610d2357600080fd5b8101908080359060200190929190803561ffff1690602001909291905050506120db565b005b348015610d5557600080fd5b50610d9860048036036020811015610d6c57600080fd5b81019080803573ffffffffffffffffffffffffffffffffffffffff169060200190929190505050612189565b005b600060188261ffff16101515610db35760079050610f50565b60168261ffff16101515610dca5760069050610f50565b60148261ffff16101515610de15760059050610f50565b60128261ffff16101515610df85760049050610f50565b60108261ffff16101515610e0f5760039050610f50565b600e8261ffff16101515610e265760029050610f50565b600c8261ffff16101515610e3d5760019050610f50565b600a8261ffff16101515610e545760009050610f50565b60088261ffff16101515610e8a577fffffffffffffffffffffffffffffffffffffffffffffffffffffffffffffffff9050610f50565b60068261ffff16101515610ec0577ffffffffffffffffffffffffffffffffffffffffffffffffffffffffffffffffe9050610f50565b60048261ffff16101515610ef6577ffffffffffffffffffffffffffffffffffffffffffffffffffffffffffffffffd9050610f50565b60028261ffff16101515610f2c577ffffffffffffffffffffffffffffffffffffffffffffffffffffffffffffffffc9050610f50565b7ffffffffffffffffffffffffffffffffffffffffffffffffffffffffffffffffb90505b919050565b806005600082815260200190815260200160002060009054906101000a900473ffffffffffffffffffffffffffffffffffffffff1673ffffffffffffffffffffffffffffffffffffffff163373ffffffffffffffffffffffffffffffffffffffff16141515610fc357600080fd5b826007600084815260200190815260200160002060006101000a81548173ffffffffffffffffffffffffffffffffffffffff021916908373ffffffffffffffffffffffffffffffffffffffff160217905550818373ffffffffffffffffffffffffffffffffffffffff163373ffffffffffffffffffffffffffffffffffffffff167f8c5be1e5ebec7d5bd14f71427d1e84f3dd0314c0f7b2291e5b200ac8c7c3b92560405160405180910390a4505050565b806005600082815260200190815260200160002060009054906101000a900473ffffffffffffffffffffffffffffffffffffffff1673ffffffffffffffffffffffffffffffffffffffff163373ffffffffffffffffffffffffffffffffffffffff161415156110e357600080fd5b60006004838154811015156110f457fe5b9060005260206000209060040201905061110d816121a8565b151561111857600080fd5b61115e600160048581548110151561112c57fe5b906000526020600020906004020160030160009054906101000a900461ffff1661ffff166121cf90919063ffffffff16565b60048481548110151561116d57fe5b906000526020600020906004020160030160006101000a81548161ffff021916908361ffff1602179055506111a1816121f5565b505050565b816005600082815260200190815260200160002060009054906101000a900473ffffffffffffffffffffffffffffffffffffffff1673ffffffffffffffffffffffffffffffffffffffff163373ffffffffffffffffffffffffffffffffffffffff1614151561121457600080fd5b8160048481548110151561122457fe5b906000526020600020906004020160030160026101000a81548161ffff021916908361ffff160217905550505050565b3373ffffffffffffffffffffffffffffffffffffffff166005600083815260200190815260200160002060009054906101000a900473ffffffffffffffffffffffffffffffffffffffff1673ffffffffffffffffffffffffffffffffffffffff16148061131f57503373ffffffffffffffffffffffffffffffffffffffff166007600083815260200190815260200160002060009054906101000a900473ffffffffffffffffffffffffffffffffffffffff1673ffffffffffffffffffffffffffffffffffffffff16145b151561132a57600080fd5b61133583838361221f565b505050565b816005600082815260200190815260200160002060009054906101000a900473ffffffffffffffffffffffffffffffffffffffff1673ffffffffffffffffffffffffffffffffffffffff163373ffffffffffffffffffffffffffffffffffffffff161415156113a857600080fd5b816004848154811015156113b857fe5b906000526020600020906004020160030160046101000a81548161ffff021916908361ffff160217905550505050565b606080600660008473ffffffffffffffffffffffffffffffffffffffff1673ffffffffffffffffffffffffffffffffffffffff168152602001908152602001600020546040519080825280602002602001820160405280156114595781602001602082028038833980820191505090505b509050600080905060008090505b60048054905081101561150e578473ffffffffffffffffffffffffffffffffffffffff166005600083815260200190815260200160002060009054906101000a900473ffffffffffffffffffffffffffffffffffffffff1673ffffffffffffffffffffffffffffffffffffffff161415611501578083838151811015156114ea57fe5b906020019060200201818152505081806001019250505b8080600101915050611467565b508192505050919050565b60056020528060005260406000206000915054906101000a900473ffffffffffffffffffffffffffffffffffffffff1681565b600060016004610160604051908101604052808d81526020018c81526020018b8152602001600260009054906101000a900461ffff1661ffff1681526020018a61ffff1681526020018961ffff1681526020018861ffff1681526020018761ffff1681526020018661ffff1681526020018561ffff168152602001600354420163ffffffff1681525090806001815401808255809150509060018203906000526020600020906004020160009091929091909150600082015181600001908051906020019061161c9291906125fd565b5060208201518160010190805190602001906116399291906125fd565b5060408201518160020190805190602001906116569291906125fd565b5060608201518160030160006101000a81548161ffff021916908361ffff16021790555060808201518160030160026101000a81548161ffff021916908361ffff16021790555060a08201518160030160046101000a81548161ffff021916908361ffff16021790555060c08201518160030160066101000a81548161ffff021916908361ffff16021790555060e08201518160030160086101000a81548161ffff021916908361ffff16021790555061010082015181600301600a6101000a81548161ffff021916908361ffff16021790555061012082015181600301600c6101000a81548161ffff021916908361ffff16021790555061014082015181600301600e6101000a81548163ffffffff021916908363ffffffff1602179055505050039050336005600083815260200190815260200160002060006101000a81548173ffffffffffffffffffffffffffffffffffffffff021916908373ffffffffffffffffffffffffffffffffffffffff1602179055506118206001600660003373ffffffffffffffffffffffffffffffffffffffff1673ffffffffffffffffffffffffffffffffffffffff168152602001908152602001600020546123fd90919063ffffffff16565b600660003373ffffffffffffffffffffffffffffffffffffffff1673ffffffffffffffffffffffffffffffffffffffff168152602001908152602001600020819055507f0b9c26339092edd4ecf4e8e0e870fdb25f707b6d7b92fdf8c2f7a0102b54f74e818b8b8b60405180858152602001806020018060200180602001848103845287818151815260200191508051906020019080838360005b838110156118d65780820151818401526020810190506118bb565b50505050905090810190601f1680156119035780820380516001836020036101000a031916815260200191505b50848103835286818151815260200191508051906020019080838360005b8381101561193c578082015181840152602081019050611921565b50505050905090810190601f1680156119695780820380516001836020036101000a031916815260200191505b50848103825285818151815260200191508051906020019080838360005b838110156119a2578082015181840152602081019050611987565b50505050905090810190601f1680156119cf5780820380516001836020036101000a031916815260200191505b5097505050505050505060405180910390a150505050505050505050565b60006005600083815260200190815260200160002060009054906101000a900473ffffffffffffffffffffffffffffffffffffffff169050919050565b611a71838383611a3a600661241b565b611a44600661241b565b611a4e600661241b565b611a58600661241b565b611a62600661241b565b611a6c600661241b565b61154c565b505050565b611a7e611bd7565b1515611a8957600080fd5b8060038190555050565b6000600660008373ffffffffffffffffffffffffffffffffffffffff1673ffffffffffffffffffffffffffffffffffffffff168152602001908152602001600020549050919050565b611ae4611bd7565b1515611aef57600080fd5b600073ffffffffffffffffffffffffffffffffffffffff166000809054906101000a900473ffffffffffffffffffffffffffffffffffffffff1673ffffffffffffffffffffffffffffffffffffffff167f8be0079c531659141344cd1fd0a4f28419497f9722a3daafe3b4186f6b6457e060405160405180910390a360008060006101000a81548173ffffffffffffffffffffffffffffffffffffffff021916908373ffffffffffffffffffffffffffffffffffffffff160217905550565b60008060009054906101000a900473ffffffffffffffffffffffffffffffffffffffff16905090565b60008060009054906101000a900473ffffffffffffffffffffffffffffffffffffffff1673ffffffffffffffffffffffffffffffffffffffff163373ffffffffffffffffffffffffffffffffffffffff1614905090565b816005600082815260200190815260200160002060009054906101000a900473ffffffffffffffffffffffffffffffffffffffff1673ffffffffffffffffffffffffffffffffffffffff163373ffffffffffffffffffffffffffffffffffffffff16141515611c9c57600080fd5b81600484815481101515611cac57fe5b906000526020600020906004020160030160086101000a81548161ffff021916908361ffff160217905550505050565b600481815481101515611ceb57fe5b9060005260206000209060040201600091509050806000018054600181600116156101000203166002900480601f016020809104026020016040519081016040528092919081815260200182805460018160011615610100020316600290048015611d975780601f10611d6c57610100808354040283529160200191611d97565b820191906000526020600020905b815481529060010190602001808311611d7a57829003601f168201915b505050505090806001018054600181600116156101000203166002900480601f016020809104026020016040519081016040528092919081815260200182805460018160011615610100020316600290048015611e355780601f10611e0a57610100808354040283529160200191611e35565b820191906000526020600020905b815481529060010190602001808311611e1857829003601f168201915b505050505090806002018054600181600116156101000203166002900480601f016020809104026020016040519081016040528092919081815260200182805460018160011615610100020316600290048015611ed35780601f10611ea857610100808354040283529160200191611ed3565b820191906000526020600020905b815481529060010190602001808311611eb657829003601f168201915b5050505050908060030160009054906101000a900461ffff16908060030160029054906101000a900461ffff16908060030160049054906101000a900461ffff16908060030160069054906101000a900461ffff16908060030160089054906101000a900461ffff169080600301600a9054906101000a900461ffff169080600301600c9054906101000a900461ffff169080600301600e9054906101000a900463ffffffff1690508b565b816005600082815260200190815260200160002060009054906101000a900473ffffffffffffffffffffffffffffffffffffffff1673ffffffffffffffffffffffffffffffffffffffff163373ffffffffffffffffffffffffffffffffffffffff16141515611fed57600080fd5b81600484815481101515611ffd57fe5b9060005260206000209060040201600301600c6101000a81548161ffff021916908361ffff160217905550505050565b816005600082815260200190815260200160002060009054906101000a900473ffffffffffffffffffffffffffffffffffffffff1673ffffffffffffffffffffffffffffffffffffffff163373ffffffffffffffffffffffffffffffffffffffff1614151561209b57600080fd5b816004848154811015156120ab57fe5b9060005260206000209060040201600301600a6101000a81548161ffff021916908361ffff160217905550505050565b816005600082815260200190815260200160002060009054906101000a900473ffffffffffffffffffffffffffffffffffffffff1673ffffffffffffffffffffffffffffffffffffffff163373ffffffffffffffffffffffffffffffffffffffff1614151561214957600080fd5b8160048481548110151561215957fe5b906000526020600020906004020160030160066101000a81548161ffff021916908361ffff160217905550505050565b612191611bd7565b151561219c57600080fd5b6121a5816124ea565b50565b60004282600301600e9054906101000a900463ffffffff1663ffffffff1611159050919050565b60008082840190508361ffff168161ffff16101515156121eb57fe5b8091505092915050565b600354420181600301600e6101000a81548163ffffffff021916908363ffffffff16021790555050565b6122726001600660008573ffffffffffffffffffffffffffffffffffffffff1673ffffffffffffffffffffffffffffffffffffffff168152602001908152602001600020546123fd90919063ffffffff16565b600660008473ffffffffffffffffffffffffffffffffffffffff1673ffffffffffffffffffffffffffffffffffffffff168152602001908152602001600020819055506123086001600660003373ffffffffffffffffffffffffffffffffffffffff1673ffffffffffffffffffffffffffffffffffffffff168152602001908152602001600020546125e490919063ffffffff16565b600660003373ffffffffffffffffffffffffffffffffffffffff1673ffffffffffffffffffffffffffffffffffffffff16815260200190815260200160002081905550816005600083815260200190815260200160002060006101000a81548173ffffffffffffffffffffffffffffffffffffffff021916908373ffffffffffffffffffffffffffffffffffffffff160217905550808273ffffffffffffffffffffffffffffffffffffffff168473ffffffffffffffffffffffffffffffffffffffff167fddf252ad1be2c89b69c2b068fc378daa952ba7f163c4a11628f55a4df523b3ef60405160405180910390a4505050565b600080828401905083811015151561241157fe5b8091505092915050565b6000612432600180546123fd90919063ffffffff16565b600181905550600080600090505b60038110156124e0576001844233600154604051602001808481526020018373ffffffffffffffffffffffffffffffffffffffff1673ffffffffffffffffffffffffffffffffffffffff166c01000000000000000000000000028152601401828152602001935050505060405160208183030381529060405280519060200120600190048115156124cd57fe5b0601820191508080600101915050612440565b5080915050919050565b600073ffffffffffffffffffffffffffffffffffffffff168173ffffffffffffffffffffffffffffffffffffffff161415151561252657600080fd5b8073ffffffffffffffffffffffffffffffffffffffff166000809054906101000a900473ffffffffffffffffffffffffffffffffffffffff1673ffffffffffffffffffffffffffffffffffffffff167f8be0079c531659141344cd1fd0a4f28419497f9722a3daafe3b4186f6b6457e060405160405180910390a3806000806101000a81548173ffffffffffffffffffffffffffffffffffffffff021916908373ffffffffffffffffffffffffffffffffffffffff16021790555050565b60008282111515156125f257fe5b818303905092915050565b828054600181600116156101000203166002900490600052602060002090601f016020900481019282601f1061263e57805160ff191683800117855561266c565b8280016001018555821561266c579182015b8281111561266b578251825591602001919060010190612650565b5b509050612679919061267d565b5090565b61269f91905b8082111561269b576000816000905550600101612683565b5090565b9056fea165627a7a72305820ffafb2044ebc73826520129e6bfba85da6095c030c1d6742be6210a346a6e9200029",
  "linkReferences": {},
  "deployedLinkReferences": {}
}