{
  "_format": "hh-sol-artifact-1",
  "contractName": "SheetGenerator",
  "sourceName": "contracts/SheetGenerator.sol",
  "abi": [
    {
      "constant": true,
      "inputs": [
        {
          "name": "attribute_score",
          "type": "uint16"
        }
      ],
      "name": "attributeBonuses",
      "outputs": [
        {
          "name": "",
          "type": "int256"
        }
      ],
      "payable": false,
      "stateMutability": "view",
      "type": "function"
    },
    {
      "constant": true,
      "inputs": [
        {
          "name": "",
          "type": "uint256"
        }
      ],
      "name": "sheetToOwner",
      "outputs": [
        {
          "name": "",
          "type": "address"
        }
      ],
      "payable": false,
      "stateMutability": "view",
      "type": "function"
    },
    {
      "constant": false,
      "inputs": [
        {
          "name": "_charName",
          "type": "string"
        },
        {
          "name": "_race",
          "type": "string"
        },
        {
          "name": "_class",
          "type": "string"
        },
        {
          "name": "_Str",
          "type": "uint16"
        },
        {
          "name": "_Dex",
          "type": "uint16"
        },
        {
          "name": "_Con",
          "type": "uint16"
        },
        {
          "name": "_Int",
          "type": "uint16"
        },
        {
          "name": "_Wis",
          "type": "uint16"
        },
        {
          "name": "_Cha",
          "type": "uint16"
        }
      ],
      "name": "createSheet",
      "outputs": [],
      "payable": false,
      "stateMutability": "nonpayable",
      "type": "function"
    },
    {
      "constant": false,
      "inputs": [
        {
          "name": "_charName",
          "type": "string"
        },
        {
          "name": "_race",
          "type": "string"
        },
        {
          "name": "_class",
          "type": "string"
        }
      ],
      "name": "createRandomSheet",
      "outputs": [],
      "payable": false,
      "stateMutability": "nonpayable",
      "type": "function"
    },
    {
      "constant": false,
      "inputs": [
        {
          "name": "_seconds",
          "type": "uint256"
        }
      ],
      "name": "setCooldownTime",
      "outputs": [],
      "payable": false,
      "stateMutability": "nonpayable",
      "type": "function"
    },
    {
      "constant": false,
      "inputs": [],
      "name": "renounceOwnership",
      "outputs": [],
      "payable": false,
      "stateMutability": "nonpayable",
      "type": "function"
    },
    {
      "constant": true,
      "inputs": [],
      "name": "owner",
      "outputs": [
        {
          "name": "",
          "type": "address"
        }
      ],
      "payable": false,
      "stateMutability": "view",
      "type": "function"
    },
    {
      "constant": true,
      "inputs": [],
      "name": "isOwner",
      "outputs": [
        {
          "name": "",
          "type": "bool"
        }
      ],
      "payable": false,
      "stateMutability": "view",
      "type": "function"
    },
    {
      "constant": true,
      "inputs": [
        {
          "name": "",
          "type": "uint256"
        }
      ],
      "name": "sheets",
      "outputs": [
        {
          "name": "charName",
          "type": "string"
        },
        {
          "name": "race",
          "type": "string"
        },
        {
          "name": "class",
          "type": "string"
        },
        {
          "name": "level",
          "type": "uint16"
        },
        {
          "name": "Str",
          "type": "uint16"
        },
        {
          "name": "Dex",
          "type": "uint16"
        },
        {
          "name": "Con",
          "type": "uint16"
        },
        {
          "name": "Int",
          "type": "uint16"
        },
        {
          "name": "Wis",
          "type": "uint16"
        },
        {
          "name": "Cha",
          "type": "uint16"
        },
        {
          "name": "readyTime",
          "type": "uint32"
        }
      ],
      "payable": false,
      "stateMutability": "view",
      "type": "function"
    },
    {
      "constant": false,
      "inputs": [
        {
          "name": "newOwner",
          "type": "address"
        }
      ],
      "name": "transferOwnership",
      "outputs": [],
      "payable": false,
      "stateMutability": "nonpayable",
      "type": "function"
    },
    {
      "anonymous": false,
      "inputs": [
        {
          "indexed": false,
          "name": "sheetId",
          "type": "uint256"
        },
        {
          "indexed": false,
          "name": "charName",
          "type": "string"
        },
        {
          "indexed": false,
          "name": "race",
          "type": "string"
        },
        {
          "indexed": false,
          "name": "class",
          "type": "string"
        }
      ],
      "name": "NewSheet",
      "type": "event"
    },
    {
      "anonymous": false,
      "inputs": [
        {
          "indexed": true,
          "name": "previousOwner",
          "type": "address"
        },
        {
          "indexed": true,
          "name": "newOwner",
          "type": "address"
        }
      ],
      "name": "OwnershipTransferred",
      "type": "event"
    }
  ],
  "bytecode": "0x608060405260006001556001600260006101000a81548161ffff021916908361ffff1602179055506078600355336000806101000a81548173ffffffffffffffffffffffffffffffffffffffff021916908373ffffffffffffffffffffffffffffffffffffffff1602179055506000809054906101000a900473ffffffffffffffffffffffffffffffffffffffff1673ffffffffffffffffffffffffffffffffffffffff16600073ffffffffffffffffffffffffffffffffffffffff167f8be0079c531659141344cd1fd0a4f28419497f9722a3daafe3b4186f6b6457e060405160405180910390a36116a7806100f76000396000f3fe60806040526004361061009e576000357c010000000000000000000000000000000000000000000000000000000090048063025a542d146100a357806350402ba9146100f6578063624e5e161461017157806363b8cc4e146103bc5780636ff73201146105b2578063715018a6146105ed5780638da5cb5b146106045780638f32d59b1461065b578063ae28505e1461068a578063f2fde38b14610892575b600080fd5b3480156100af57600080fd5b506100e0600480360360208110156100c657600080fd5b81019080803561ffff1690602001909291905050506108e3565b6040518082815260200191505060405180910390f35b34801561010257600080fd5b5061012f6004803603602081101561011957600080fd5b8101908080359060200190929190505050610a9e565b604051808273ffffffffffffffffffffffffffffffffffffffff1673ffffffffffffffffffffffffffffffffffffffff16815260200191505060405180910390f35b34801561017d57600080fd5b506103ba600480360361012081101561019557600080fd5b81019080803590602001906401000000008111156101b257600080fd5b8201836020820111156101c457600080fd5b803590602001918460018302840111640100000000831117156101e657600080fd5b91908080601f016020809104026020016040519081016040528093929190818152602001838380828437600081840152601f19601f8201169050808301925050505050505091929192908035906020019064010000000081111561024957600080fd5b82018360208201111561025b57600080fd5b8035906020019184600183028401116401000000008311171561027d57600080fd5b91908080601f016020809104026020016040519081016040528093929190818152602001838380828437600081840152601f19601f820116905080830192505050505050509192919290803590602001906401000000008111156102e057600080fd5b8201836020820111156102f257600080fd5b8035906020019184600183028401116401000000008311171561031457600080fd5b91908080601f016020809104026020016040519081016040528093929190818152602001838380828437600081840152601f19601f820116905080830192505050505050509192919290803561ffff169060200190929190803561ffff169060200190929190803561ffff169060200190929190803561ffff169060200190929190803561ffff169060200190929190803561ffff169060200190929190505050610ad1565b005b3480156103c857600080fd5b506105b0600480360360608110156103df57600080fd5b81019080803590602001906401000000008111156103fc57600080fd5b82018360208201111561040e57600080fd5b8035906020019184600183028401116401000000008311171561043057600080fd5b91908080601f016020809104026020016040519081016040528093929190818152602001838380828437600081840152601f19601f8201169050808301925050505050505091929192908035906020019064010000000081111561049357600080fd5b8201836020820111156104a557600080fd5b803590602001918460018302840111640100000000831117156104c757600080fd5b91908080601f016020809104026020016040519081016040528093929190818152602001838380828437600081840152601f19601f8201169050808301925050505050505091929192908035906020019064010000000081111561052a57600080fd5b82018360208201111561053c57600080fd5b8035906020019184600183028401116401000000008311171561055e57600080fd5b91908080601f016020809104026020016040519081016040528093929190818152602001838380828437600081840152601f19601f820116905080830192505050505050509192919290505050610f72565b005b3480156105be57600080fd5b506105eb600480360360208110156105d557600080fd5b8101908080359060200190929190505050610fbe565b005b3480156105f957600080fd5b50610602610fdb565b005b34801561061057600080fd5b506106196110ad565b604051808273ffffffffffffffffffffffffffffffffffffffff1673ffffffffffffffffffffffffffffffffffffffff16815260200191505060405180910390f35b34801561066757600080fd5b506106706110d6565b604051808215151515815260200191505060405180910390f35b34801561069657600080fd5b506106c3600480360360208110156106ad57600080fd5b810190808035906020019092919050505061112d565b604051808060200180602001806020018c61ffff1661ffff1681526020018b61ffff1661ffff1681526020018a61ffff1661ffff1681526020018961ffff1661ffff1681526020018861ffff1661ffff1681526020018761ffff1661ffff1681526020018661ffff1661ffff1681526020018563ffffffff1663ffffffff16815260200184810384528f818151815260200191508051906020019080838360005b8381101561077f578082015181840152602081019050610764565b50505050905090810190601f1680156107ac5780820380516001836020036101000a031916815260200191505b5084810383528e818151815260200191508051906020019080838360005b838110156107e55780820151818401526020810190506107ca565b50505050905090810190601f1680156108125780820380516001836020036101000a031916815260200191505b5084810382528d818151815260200191508051906020019080838360005b8381101561084b578082015181840152602081019050610830565b50505050905090810190601f1680156108785780820380516001836020036101000a031916815260200191505b509e50505050505050505050505050505060405180910390f35b34801561089e57600080fd5b506108e1600480360360208110156108b557600080fd5b81019080803573ffffffffffffffffffffffffffffffffffffffff1690602001909291905050506113d0565b005b600060188261ffff161015156108fc5760079050610a99565b60168261ffff161015156109135760069050610a99565b60148261ffff1610151561092a5760059050610a99565b60128261ffff161015156109415760049050610a99565b60108261ffff161015156109585760039050610a99565b600e8261ffff1610151561096f5760029050610a99565b600c8261ffff161015156109865760019050610a99565b600a8261ffff1610151561099d5760009050610a99565b60088261ffff161015156109d3577fffffffffffffffffffffffffffffffffffffffffffffffffffffffffffffffff9050610a99565b60068261ffff16101515610a09577ffffffffffffffffffffffffffffffffffffffffffffffffffffffffffffffffe9050610a99565b60048261ffff16101515610a3f577ffffffffffffffffffffffffffffffffffffffffffffffffffffffffffffffffd9050610a99565b60028261ffff16101515610a75577ffffffffffffffffffffffffffffffffffffffffffffffffffffffffffffffffc9050610a99565b7ffffffffffffffffffffffffffffffffffffffffffffffffffffffffffffffffb90505b919050565b60056020528060005260406000206000915054906101000a900473ffffffffffffffffffffffffffffffffffffffff1681565b600060016004610160604051908101604052808d81526020018c81526020018b8152602001600260009054906101000a900461ffff1661ffff1681526020018a61ffff1681526020018961ffff1681526020018861ffff1681526020018761ffff1681526020018661ffff1681526020018561ffff168152602001600354420163ffffffff16815250908060018154018082558091505090600182039060005260206000209060040201600090919290919091506000820151816000019080519060200190610ba19291906115d6565b506020820151816001019080519060200190610bbe9291906115d6565b506040820151816002019080519060200190610bdb9291906115d6565b5060608201518160030160006101000a81548161ffff021916908361ffff16021790555060808201518160030160026101000a81548161ffff021916908361ffff16021790555060a08201518160030160046101000a81548161ffff021916908361ffff16021790555060c08201518160030160066101000a81548161ffff021916908361ffff16021790555060e08201518160030160086101000a81548161ffff021916908361ffff16021790555061010082015181600301600a6101000a81548161ffff021916908361ffff16021790555061012082015181600301600c6101000a81548161ffff021916908361ffff16021790555061014082015181600301600e6101000a81548163ffffffff021916908363ffffffff1602179055505050039050336005600083815260200190815260200160002060006101000a81548173ffffffffffffffffffffffffffffffffffffffff021916908373ffffffffffffffffffffffffffffffffffffffff160217905550610da56001600660003373ffffffffffffffffffffffffffffffffffffffff1673ffffffffffffffffffffffffffffffffffffffff168152602001908152602001600020546113ef90919063ffffffff16565b600660003373ffffffffffffffffffffffffffffffffffffffff1673ffffffffffffffffffffffffffffffffffffffff168152602001908152602001600020819055507f0b9c26339092edd4ecf4e8e0e870fdb25f707b6d7b92fdf8c2f7a0102b54f74e818b8b8b60405180858152602001806020018060200180602001848103845287818151815260200191508051906020019080838360005b83811015610e5b578082015181840152602081019050610e40565b50505050905090810190601f168015610e885780820380516001836020036101000a031916815260200191505b50848103835286818151815260200191508051906020019080838360005b83811015610ec1578082015181840152602081019050610ea6565b50505050905090810190601f168015610eee5780820380516001836020036101000a031916815260200191505b50848103825285818151815260200191508051906020019080838360005b83811015610f27578082015181840152602081019050610f0c565b50505050905090810190601f168015610f545780820380516001836020036101000a031916815260200191505b5097505050505050505060405180910390a150505050505050505050565b610fb9838383610f82600661140d565b610f8c600661140d565b610f96600661140d565b610fa0600661140d565b610faa600661140d565b610fb4600661140d565b610ad1565b505050565b610fc66110d6565b1515610fd157600080fd5b8060038190555050565b610fe36110d6565b1515610fee57600080fd5b600073ffffffffffffffffffffffffffffffffffffffff166000809054906101000a900473ffffffffffffffffffffffffffffffffffffffff1673ffffffffffffffffffffffffffffffffffffffff167f8be0079c531659141344cd1fd0a4f28419497f9722a3daafe3b4186f6b6457e060405160405180910390a360008060006101000a81548173ffffffffffffffffffffffffffffffffffffffff021916908373ffffffffffffffffffffffffffffffffffffffff160217905550565b60008060009054906101000a900473ffffffffffffffffffffffffffffffffffffffff16905090565b60008060009054906101000a900473ffffffffffffffffffffffffffffffffffffffff1673ffffffffffffffffffffffffffffffffffffffff163373ffffffffffffffffffffffffffffffffffffffff1614905090565b60048181548110151561113c57fe5b9060005260206000209060040201600091509050806000018054600181600116156101000203166002900480601f0160208091040260200160405190810160405280929190818152602001828054600181600116156101000203166002900480156111e85780601f106111bd576101008083540402835291602001916111e8565b820191906000526020600020905b8154815290600101906020018083116111cb57829003601f168201915b505050505090806001018054600181600116156101000203166002900480601f0160208091040260200160405190810160405280929190818152602001828054600181600116156101000203166002900480156112865780601f1061125b57610100808354040283529160200191611286565b820191906000526020600020905b81548152906001019060200180831161126957829003601f168201915b505050505090806002018054600181600116156101000203166002900480601f0160208091040260200160405190810160405280929190818152602001828054600181600116156101000203166002900480156113245780601f106112f957610100808354040283529160200191611324565b820191906000526020600020905b81548152906001019060200180831161130757829003601f168201915b5050505050908060030160009054906101000a900461ffff16908060030160029054906101000a900461ffff16908060030160049054906101000a900461ffff16908060030160069054906101000a900461ffff16908060030160089054906101000a900461ffff169080600301600a9054906101000a900461ffff169080600301600c9054906101000a900461ffff169080600301600e9054906101000a900463ffffffff1690508b565b6113d86110d6565b15156113e357600080fd5b6113ec816114dc565b50565b600080828401905083811015151561140357fe5b8091505092915050565b6000611424600180546113ef90919063ffffffff16565b600181905550600080600090505b60038110156114d2576001844233600154604051602001808481526020018373ffffffffffffffffffffffffffffffffffffffff1673ffffffffffffffffffffffffffffffffffffffff166c01000000000000000000000000028152601401828152602001935050505060405160208183030381529060405280519060200120600190048115156114bf57fe5b0601820191508080600101915050611432565b5080915050919050565b600073ffffffffffffffffffffffffffffffffffffffff168173ffffffffffffffffffffffffffffffffffffffff161415151561151857600080fd5b8073ffffffffffffffffffffffffffffffffffffffff166000809054906101000a900473ffffffffffffffffffffffffffffffffffffffff1673ffffffffffffffffffffffffffffffffffffffff167f8be0079c531659141344cd1fd0a4f28419497f9722a3daafe3b4186f6b6457e060405160405180910390a3806000806101000a81548173ffffffffffffffffffffffffffffffffffffffff021916908373ffffffffffffffffffffffffffffffffffffffff16021790555050565b828054600181600116156101000203166002900490600052602060002090601f016020900481019282601f1061161757805160ff1916838001178555611645565b82800160010185558215611645579182015b82811115611644578251825591602001919060010190611629565b5b5090506116529190611656565b5090565b61167891905b8082111561167457600081600090555060010161165c565b5090565b9056fea165627a7a723058203a86696164159ac30877b63062992642f3004386a256c8d8843c62f91f799a390029",
  "linkReferences": {},
  "deployedLinkReferences": {}
}