{
  "_format": "hh-sol-artifact-1",
  "contractName": "SheetUpdate",
  "sourceName": "contracts/SheetUpdate.sol",
  "abi": [
    {
      "constant": true,
      "inputs": [
        {
          "name": "attribute_score",
          "type": "uint16"
        }
      ],
      "name": "attributeBonuses",
      "outputs": [
        {
          "name": "",
          "type": "int256"
        }
      ],
      "payable": false,
      "stateMutability": "view",
      "type": "function"
    },
    {
      "constant": false,
      "inputs": [
        {
          "name": "_sheetId",
          "type": "uint256"
        }
      ],
      "name": "levelUp",
      "outputs": [],
      "payable": false,
      "stateMutability": "nonpayable",
      "type": "function"
    },
    {
      "constant": false,
      "inputs": [
        {
          "name": "_sheetId",
          "type": "uint256"
        },
        {
          "name": "_newStr",
          "type": "uint16"
        }
      ],
      "name": "changeStr",
      "outputs": [],
      "payable": false,
      "stateMutability": "nonpayable",
      "type": "function"
    },
    {
      "constant": false,
      "inputs": [
        {
          "name": "_sheetId",
          "type": "uint256"
        },
        {
          "name": "_newDex",
          "type": "uint16"
        }
      ],
      "name": "changeDex",
      "outputs": [],
      "payable": false,
      "stateMutability": "nonpayable",
      "type": "function"
    },
    {
      "constant": true,
      "inputs": [
        {
          "name": "_owner",
          "type": "address"
        }
      ],
      "name": "getSheetsByOwner",
      "outputs": [
        {
          "name": "",
          "type": "uint256[]"
        }
      ],
      "payable": false,
      "stateMutability": "view",
      "type": "function"
    },
    {
      "constant": true,
      "inputs": [
        {
          "name": "",
          "type": "uint256"
        }
      ],
      "name": "sheetToOwner",
      "outputs": [
        {
          "name": "",
          "type": "address"
        }
      ],
      "payable": false,
      "stateMutability": "view",
      "type": "function"
    },
    {
      "constant": false,
      "inputs": [
        {
          "name": "_charName",
          "type": "string"
        },
        {
          "name": "_race",
          "type": "string"
        },
        {
          "name": "_class",
          "type": "string"
        },
        {
          "name": "_Str",
          "type": "uint16"
        },
        {
          "name": "_Dex",
          "type": "uint16"
        },
        {
          "name": "_Con",
          "type": "uint16"
        },
        {
          "name": "_Int",
          "type": "uint16"
        },
        {
          "name": "_Wis",
          "type": "uint16"
        },
        {
          "name": "_Cha",
          "type": "uint16"
        }
      ],
      "name": "createSheet",
      "outputs": [],
      "payable": false,
      "stateMutability": "nonpayable",
      "type": "function"
    },
    {
      "constant": false,
      "inputs": [
        {
          "name": "_charName",
          "type": "string"
        },
        {
          "name": "_race",
          "type": "string"
        },
        {
          "name": "_class",
          "type": "string"
        }
      ],
      "name": "createRandomSheet",
      "outputs": [],
      "payable": false,
      "stateMutability": "nonpayable",
      "type": "function"
    },
    {
      "constant": false,
      "inputs": [
        {
          "name": "_seconds",
          "type": "uint256"
        }
      ],
      "name": "setCooldownTime",
      "outputs": [],
      "payable": false,
      "stateMutability": "nonpayable",
      "type": "function"
    },
    {
      "constant": false,
      "inputs": [],
      "name": "renounceOwnership",
      "outputs": [],
      "payable": false,
      "stateMutability": "nonpayable",
      "type": "function"
    },
    {
      "constant": true,
      "inputs": [],
      "name": "owner",
      "outputs": [
        {
          "name": "",
          "type": "address"
        }
      ],
      "payable": false,
      "stateMutability": "view",
      "type": "function"
    },
    {
      "constant": true,
      "inputs": [],
      "name": "isOwner",
      "outputs": [
        {
          "name": "",
          "type": "bool"
        }
      ],
      "payable": false,
      "stateMutability": "view",
      "type": "function"
    },
    {
      "constant": false,
      "inputs": [
        {
          "name": "_sheetId",
          "type": "uint256"
        },
        {
          "name": "_newInt",
          "type": "uint16"
        }
      ],
      "name": "changeInt",
      "outputs": [],
      "payable": false,
      "stateMutability": "nonpayable",
      "type": "function"
    },
    {
      "constant": true,
      "inputs": [
        {
          "name": "",
          "type": "uint256"
        }
      ],
      "name": "sheets",
      "outputs": [
        {
          "name": "charName",
          "type": "string"
        },
        {
          "name": "race",
          "type": "string"
        },
        {
          "name": "class",
          "type": "string"
        },
        {
          "name": "level",
          "type": "uint16"
        },
        {
          "name": "Str",
          "type": "uint16"
        },
        {
          "name": "Dex",
          "type": "uint16"
        },
        {
          "name": "Con",
          "type": "uint16"
        },
        {
          "name": "Int",
          "type": "uint16"
        },
        {
          "name": "Wis",
          "type": "uint16"
        },
        {
          "name": "Cha",
          "type": "uint16"
        },
        {
          "name": "readyTime",
          "type": "uint32"
        }
      ],
      "payable": false,
      "stateMutability": "view",
      "type": "function"
    },
    {
      "constant": false,
      "inputs": [
        {
          "name": "_sheetId",
          "type": "uint256"
        },
        {
          "name": "_newCha",
          "type": "uint16"
        }
      ],
      "name": "changeCha",
      "outputs": [],
      "payable": false,
      "stateMutability": "nonpayable",
      "type": "function"
    },
    {
      "constant": false,
      "inputs": [
        {
          "name": "_sheetId",
          "type": "uint256"
        },
        {
          "name": "_newWis",
          "type": "uint16"
        }
      ],
      "name": "changeWis",
      "outputs": [],
      "payable": false,
      "stateMutability": "nonpayable",
      "type": "function"
    },
    {
      "constant": false,
      "inputs": [
        {
          "name": "_sheetId",
          "type": "uint256"
        },
        {
          "name": "_newCon",
          "type": "uint16"
        }
      ],
      "name": "changeCon",
      "outputs": [],
      "payable": false,
      "stateMutability": "nonpayable",
      "type": "function"
    },
    {
      "constant": false,
      "inputs": [
        {
          "name": "newOwner",
          "type": "address"
        }
      ],
      "name": "transferOwnership",
      "outputs": [],
      "payable": false,
      "stateMutability": "nonpayable",
      "type": "function"
    },
    {
      "anonymous": false,
      "inputs": [
        {
          "indexed": false,
          "name": "sheetId",
          "type": "uint256"
        },
        {
          "indexed": false,
          "name": "charName",
          "type": "string"
        },
        {
          "indexed": false,
          "name": "race",
          "type": "string"
        },
        {
          "indexed": false,
          "name": "class",
          "type": "string"
        }
      ],
      "name": "NewSheet",
      "type": "event"
    },
    {
      "anonymous": false,
      "inputs": [
        {
          "indexed": true,
          "name": "previousOwner",
          "type": "address"
        },
        {
          "indexed": true,
          "name": "newOwner",
          "type": "address"
        }
      ],
      "name": "OwnershipTransferred",
      "type": "event"
    }
  ],
  "bytecode": "0x608060405260006001556001600260006101000a81548161ffff021916908361ffff1602179055506078600355336000806101000a81548173ffffffffffffffffffffffffffffffffffffffff021916908373ffffffffffffffffffffffffffffffffffffffff1602179055506000809054906101000a900473ffffffffffffffffffffffffffffffffffffffff1673ffffffffffffffffffffffffffffffffffffffff16600073ffffffffffffffffffffffffffffffffffffffff167f8be0079c531659141344cd1fd0a4f28419497f9722a3daafe3b4186f6b6457e060405160405180910390a3612083806100f76000396000f3fe6080604052600436106100f6576000357c010000000000000000000000000000000000000000000000000000000090048063025a542d146100fb5780630ce90ec21461014e5780631b8b71cf1461018957806330ed57db146101d2578063459c71ce1461021b57806350402ba9146102c1578063624e5e161461033c57806363b8cc4e146105875780636ff732011461077d578063715018a6146107b85780638da5cb5b146107cf5780638f32d59b1461082657806395ea4b2714610855578063ae28505e1461089e578063b27c875114610aa6578063bb8f7e7f14610aef578063cca09efd14610b38578063f2fde38b14610b81575b600080fd5b34801561010757600080fd5b506101386004803603602081101561011e57600080fd5b81019080803561ffff169060200190929190505050610bd2565b6040518082815260200191505060405180910390f35b34801561015a57600080fd5b506101876004803603602081101561017157600080fd5b8101908080359060200190929190505050610d8d565b005b34801561019557600080fd5b506101d0600480360360408110156101ac57600080fd5b8101908080359060200190929190803561ffff169060200190929190505050610ebe565b005b3480156101de57600080fd5b50610219600480360360408110156101f557600080fd5b8101908080359060200190929190803561ffff169060200190929190505050610f6c565b005b34801561022757600080fd5b5061026a6004803603602081101561023e57600080fd5b81019080803573ffffffffffffffffffffffffffffffffffffffff16906020019092919050505061101a565b6040518080602001828103825283818151815260200191508051906020019060200280838360005b838110156102ad578082015181840152602081019050610292565b505050509050019250505060405180910390f35b3480156102cd57600080fd5b506102fa600480360360208110156102e457600080fd5b810190808035906020019092919050505061114b565b604051808273ffffffffffffffffffffffffffffffffffffffff1673ffffffffffffffffffffffffffffffffffffffff16815260200191505060405180910390f35b34801561034857600080fd5b50610585600480360361012081101561036057600080fd5b810190808035906020019064010000000081111561037d57600080fd5b82018360208201111561038f57600080fd5b803590602001918460018302840111640100000000831117156103b157600080fd5b91908080601f016020809104026020016040519081016040528093929190818152602001838380828437600081840152601f19601f8201169050808301925050505050505091929192908035906020019064010000000081111561041457600080fd5b82018360208201111561042657600080fd5b8035906020019184600183028401116401000000008311171561044857600080fd5b91908080601f016020809104026020016040519081016040528093929190818152602001838380828437600081840152601f19601f820116905080830192505050505050509192919290803590602001906401000000008111156104ab57600080fd5b8201836020820111156104bd57600080fd5b803590602001918460018302840111640100000000831117156104df57600080fd5b91908080601f016020809104026020016040519081016040528093929190818152602001838380828437600081840152601f19601f820116905080830192505050505050509192919290803561ffff169060200190929190803561ffff169060200190929190803561ffff169060200190929190803561ffff169060200190929190803561ffff169060200190929190803561ffff16906020019092919050505061117e565b005b34801561059357600080fd5b5061077b600480360360608110156105aa57600080fd5b81019080803590602001906401000000008111156105c757600080fd5b8201836020820111156105d957600080fd5b803590602001918460018302840111640100000000831117156105fb57600080fd5b91908080601f016020809104026020016040519081016040528093929190818152602001838380828437600081840152601f19601f8201169050808301925050505050505091929192908035906020019064010000000081111561065e57600080fd5b82018360208201111561067057600080fd5b8035906020019184600183028401116401000000008311171561069257600080fd5b91908080601f016020809104026020016040519081016040528093929190818152602001838380828437600081840152601f19601f820116905080830192505050505050509192919290803590602001906401000000008111156106f557600080fd5b82018360208201111561070757600080fd5b8035906020019184600183028401116401000000008311171561072957600080fd5b91908080601f016020809104026020016040519081016040528093929190818152602001838380828437600081840152601f19601f82011690508083019250505050505050919291929050505061161f565b005b34801561078957600080fd5b506107b6600480360360208110156107a057600080fd5b810190808035906020019092919050505061166b565b005b3480156107c457600080fd5b506107cd611688565b005b3480156107db57600080fd5b506107e461175a565b604051808273ffffffffffffffffffffffffffffffffffffffff1673ffffffffffffffffffffffffffffffffffffffff16815260200191505060405180910390f35b34801561083257600080fd5b5061083b611783565b604051808215151515815260200191505060405180910390f35b34801561086157600080fd5b5061089c6004803603604081101561087857600080fd5b8101908080359060200190929190803561ffff1690602001909291905050506117da565b005b3480156108aa57600080fd5b506108d7600480360360208110156108c157600080fd5b8101908080359060200190929190505050611888565b604051808060200180602001806020018c61ffff1661ffff1681526020018b61ffff1661ffff1681526020018a61ffff1661ffff1681526020018961ffff1661ffff1681526020018861ffff1661ffff1681526020018761ffff1661ffff1681526020018661ffff1661ffff1681526020018563ffffffff1663ffffffff16815260200184810384528f818151815260200191508051906020019080838360005b83811015610993578082015181840152602081019050610978565b50505050905090810190601f1680156109c05780820380516001836020036101000a031916815260200191505b5084810383528e818151815260200191508051906020019080838360005b838110156109f95780820151818401526020810190506109de565b50505050905090810190601f168015610a265780820380516001836020036101000a031916815260200191505b5084810382528d818151815260200191508051906020019080838360005b83811015610a5f578082015181840152602081019050610a44565b50505050905090810190601f168015610a8c5780820380516001836020036101000a031916815260200191505b509e50505050505050505050505050505060405180910390f35b348015610ab257600080fd5b50610aed60048036036040811015610ac957600080fd5b8101908080359060200190929190803561ffff169060200190929190505050611b2b565b005b348015610afb57600080fd5b50610b3660048036036040811015610b1257600080fd5b8101908080359060200190929190803561ffff169060200190929190505050611bd9565b005b348015610b4457600080fd5b50610b7f60048036036040811015610b5b57600080fd5b8101908080359060200190929190803561ffff169060200190929190505050611c87565b005b348015610b8d57600080fd5b50610bd060048036036020811015610ba457600080fd5b81019080803573ffffffffffffffffffffffffffffffffffffffff169060200190929190505050611d35565b005b600060188261ffff16101515610beb5760079050610d88565b60168261ffff16101515610c025760069050610d88565b60148261ffff16101515610c195760059050610d88565b60128261ffff16101515610c305760049050610d88565b60108261ffff16101515610c475760039050610d88565b600e8261ffff16101515610c5e5760029050610d88565b600c8261ffff16101515610c755760019050610d88565b600a8261ffff16101515610c8c5760009050610d88565b60088261ffff16101515610cc2577fffffffffffffffffffffffffffffffffffffffffffffffffffffffffffffffff9050610d88565b60068261ffff16101515610cf8577ffffffffffffffffffffffffffffffffffffffffffffffffffffffffffffffffe9050610d88565b60048261ffff16101515610d2e577ffffffffffffffffffffffffffffffffffffffffffffffffffffffffffffffffd9050610d88565b60028261ffff16101515610d64577ffffffffffffffffffffffffffffffffffffffffffffffffffffffffffffffffc9050610d88565b7ffffffffffffffffffffffffffffffffffffffffffffffffffffffffffffffffb90505b919050565b806005600082815260200190815260200160002060009054906101000a900473ffffffffffffffffffffffffffffffffffffffff1673ffffffffffffffffffffffffffffffffffffffff163373ffffffffffffffffffffffffffffffffffffffff16141515610dfb57600080fd5b6000600483815481101515610e0c57fe5b90600052602060002090600402019050610e2581611d54565b1515610e3057600080fd5b610e766001600485815481101515610e4457fe5b906000526020600020906004020160030160009054906101000a900461ffff1661ffff16611d7b90919063ffffffff16565b600484815481101515610e8557fe5b906000526020600020906004020160030160006101000a81548161ffff021916908361ffff160217905550610eb981611da1565b505050565b816005600082815260200190815260200160002060009054906101000a900473ffffffffffffffffffffffffffffffffffffffff1673ffffffffffffffffffffffffffffffffffffffff163373ffffffffffffffffffffffffffffffffffffffff16141515610f2c57600080fd5b81600484815481101515610f3c57fe5b906000526020600020906004020160030160026101000a81548161ffff021916908361ffff160217905550505050565b816005600082815260200190815260200160002060009054906101000a900473ffffffffffffffffffffffffffffffffffffffff1673ffffffffffffffffffffffffffffffffffffffff163373ffffffffffffffffffffffffffffffffffffffff16141515610fda57600080fd5b81600484815481101515610fea57fe5b906000526020600020906004020160030160046101000a81548161ffff021916908361ffff160217905550505050565b606080600660008473ffffffffffffffffffffffffffffffffffffffff1673ffffffffffffffffffffffffffffffffffffffff1681526020019081526020016000205460405190808252806020026020018201604052801561108b5781602001602082028038833980820191505090505b509050600080905060008090505b600480549050811015611140578473ffffffffffffffffffffffffffffffffffffffff166005600083815260200190815260200160002060009054906101000a900473ffffffffffffffffffffffffffffffffffffffff1673ffffffffffffffffffffffffffffffffffffffff1614156111335780838381518110151561111c57fe5b906020019060200201818152505081806001019250505b8080600101915050611099565b508192505050919050565b60056020528060005260406000206000915054906101000a900473ffffffffffffffffffffffffffffffffffffffff1681565b600060016004610160604051908101604052808d81526020018c81526020018b8152602001600260009054906101000a900461ffff1661ffff1681526020018a61ffff1681526020018961ffff1681526020018861ffff1681526020018761ffff1681526020018661ffff1681526020018561ffff168152602001600354420163ffffffff1681525090806001815401808255809150509060018203906000526020600020906004020160009091929091909150600082015181600001908051906020019061124e929190611fb2565b50602082015181600101908051906020019061126b929190611fb2565b506040820151816002019080519060200190611288929190611fb2565b5060608201518160030160006101000a81548161ffff021916908361ffff16021790555060808201518160030160026101000a81548161ffff021916908361ffff16021790555060a08201518160030160046101000a81548161ffff021916908361ffff16021790555060c08201518160030160066101000a81548161ffff021916908361ffff16021790555060e08201518160030160086101000a81548161ffff021916908361ffff16021790555061010082015181600301600a6101000a81548161ffff021916908361ffff16021790555061012082015181600301600c6101000a81548161ffff021916908361ffff16021790555061014082015181600301600e6101000a81548163ffffffff021916908363ffffffff1602179055505050039050336005600083815260200190815260200160002060006101000a81548173ffffffffffffffffffffffffffffffffffffffff021916908373ffffffffffffffffffffffffffffffffffffffff1602179055506114526001600660003373ffffffffffffffffffffffffffffffffffffffff1673ffffffffffffffffffffffffffffffffffffffff16815260200190815260200160002054611dcb90919063ffffffff16565b600660003373ffffffffffffffffffffffffffffffffffffffff1673ffffffffffffffffffffffffffffffffffffffff168152602001908152602001600020819055507f0b9c26339092edd4ecf4e8e0e870fdb25f707b6d7b92fdf8c2f7a0102b54f74e818b8b8b60405180858152602001806020018060200180602001848103845287818151815260200191508051906020019080838360005b838110156115085780820151818401526020810190506114ed565b50505050905090810190601f1680156115355780820380516001836020036101000a031916815260200191505b50848103835286818151815260200191508051906020019080838360005b8381101561156e578082015181840152602081019050611553565b50505050905090810190601f16801561159b5780820380516001836020036101000a031916815260200191505b50848103825285818151815260200191508051906020019080838360005b838110156115d45780820151818401526020810190506115b9565b50505050905090810190601f1680156116015780820380516001836020036101000a031916815260200191505b5097505050505050505060405180910390a150505050505050505050565b61166683838361162f6006611de9565b6116396006611de9565b6116436006611de9565b61164d6006611de9565b6116576006611de9565b6116616006611de9565b61117e565b505050565b611673611783565b151561167e57600080fd5b8060038190555050565b611690611783565b151561169b57600080fd5b600073ffffffffffffffffffffffffffffffffffffffff166000809054906101000a900473ffffffffffffffffffffffffffffffffffffffff1673ffffffffffffffffffffffffffffffffffffffff167f8be0079c531659141344cd1fd0a4f28419497f9722a3daafe3b4186f6b6457e060405160405180910390a360008060006101000a81548173ffffffffffffffffffffffffffffffffffffffff021916908373ffffffffffffffffffffffffffffffffffffffff160217905550565b60008060009054906101000a900473ffffffffffffffffffffffffffffffffffffffff16905090565b60008060009054906101000a900473ffffffffffffffffffffffffffffffffffffffff1673ffffffffffffffffffffffffffffffffffffffff163373ffffffffffffffffffffffffffffffffffffffff1614905090565b816005600082815260200190815260200160002060009054906101000a900473ffffffffffffffffffffffffffffffffffffffff1673ffffffffffffffffffffffffffffffffffffffff163373ffffffffffffffffffffffffffffffffffffffff1614151561184857600080fd5b8160048481548110151561185857fe5b906000526020600020906004020160030160086101000a81548161ffff021916908361ffff160217905550505050565b60048181548110151561189757fe5b9060005260206000209060040201600091509050806000018054600181600116156101000203166002900480601f0160208091040260200160405190810160405280929190818152602001828054600181600116156101000203166002900480156119435780601f1061191857610100808354040283529160200191611943565b820191906000526020600020905b81548152906001019060200180831161192657829003601f168201915b505050505090806001018054600181600116156101000203166002900480601f0160208091040260200160405190810160405280929190818152602001828054600181600116156101000203166002900480156119e15780601f106119b6576101008083540402835291602001916119e1565b820191906000526020600020905b8154815290600101906020018083116119c457829003601f168201915b505050505090806002018054600181600116156101000203166002900480601f016020809104026020016040519081016040528092919081815260200182805460018160011615610100020316600290048015611a7f5780601f10611a5457610100808354040283529160200191611a7f565b820191906000526020600020905b815481529060010190602001808311611a6257829003601f168201915b5050505050908060030160009054906101000a900461ffff16908060030160029054906101000a900461ffff16908060030160049054906101000a900461ffff16908060030160069054906101000a900461ffff16908060030160089054906101000a900461ffff169080600301600a9054906101000a900461ffff169080600301600c9054906101000a900461ffff169080600301600e9054906101000a900463ffffffff1690508b565b816005600082815260200190815260200160002060009054906101000a900473ffffffffffffffffffffffffffffffffffffffff1673ffffffffffffffffffffffffffffffffffffffff163373ffffffffffffffffffffffffffffffffffffffff16141515611b9957600080fd5b81600484815481101515611ba957fe5b9060005260206000209060040201600301600c6101000a81548161ffff021916908361ffff160217905550505050565b816005600082815260200190815260200160002060009054906101000a900473ffffffffffffffffffffffffffffffffffffffff1673ffffffffffffffffffffffffffffffffffffffff163373ffffffffffffffffffffffffffffffffffffffff16141515611c4757600080fd5b81600484815481101515611c5757fe5b9060005260206000209060040201600301600a6101000a81548161ffff021916908361ffff160217905550505050565b816005600082815260200190815260200160002060009054906101000a900473ffffffffffffffffffffffffffffffffffffffff1673ffffffffffffffffffffffffffffffffffffffff163373ffffffffffffffffffffffffffffffffffffffff16141515611cf557600080fd5b81600484815481101515611d0557fe5b906000526020600020906004020160030160066101000a81548161ffff021916908361ffff160217905550505050565b611d3d611783565b1515611d4857600080fd5b611d5181611eb8565b50565b60004282600301600e9054906101000a900463ffffffff1663ffffffff1611159050919050565b60008082840190508361ffff168161ffff1610151515611d9757fe5b8091505092915050565b600354420181600301600e6101000a81548163ffffffff021916908363ffffffff16021790555050565b6000808284019050838110151515611ddf57fe5b8091505092915050565b6000611e0060018054611dcb90919063ffffffff16565b600181905550600080600090505b6003811015611eae576001844233600154604051602001808481526020018373ffffffffffffffffffffffffffffffffffffffff1673ffffffffffffffffffffffffffffffffffffffff166c0100000000000000000000000002815260140182815260200193505050506040516020818303038152906040528051906020012060019004811515611e9b57fe5b0601820191508080600101915050611e0e565b5080915050919050565b600073ffffffffffffffffffffffffffffffffffffffff168173ffffffffffffffffffffffffffffffffffffffff1614151515611ef457600080fd5b8073ffffffffffffffffffffffffffffffffffffffff166000809054906101000a900473ffffffffffffffffffffffffffffffffffffffff1673ffffffffffffffffffffffffffffffffffffffff167f8be0079c531659141344cd1fd0a4f28419497f9722a3daafe3b4186f6b6457e060405160405180910390a3806000806101000a81548173ffffffffffffffffffffffffffffffffffffffff021916908373ffffffffffffffffffffffffffffffffffffffff16021790555050565b828054600181600116156101000203166002900490600052602060002090601f016020900481019282601f10611ff357805160ff1916838001178555612021565b82800160010185558215612021579182015b82811115612020578251825591602001919060010190612005565b5b50905061202e9190612032565b5090565b61205491905b80821115612050576000816000905550600101612038565b5090565b9056fea165627a7a72305820d3c025e148070429a5610c85b4872cb7cb67842da47794812df40ad752a538cf0029",
  "linkReferences": {},
  "deployedLinkReferences": {}
}